:100000000C945D000C9485000C9485000C94850084
:100010000C9485000C9485000C9485000C9485004C
:100020000C9485000C9485000C9485000C9485003C
:100030000C9485000C9485000C9485000C9485002C
:100040000C9424020C9485000C9494020C946E027F
:100050000C9485000C9485000C9485000C9485000C
:100060000C9485000C9485000000000024002700FB
:100070002A0000000000250028002B0004040404CE
:100080000404040402020202020203030303030342
:10009000010204081020408001020408102001021F
:1000A00004081020000000080002010000030407FB
:1000B0000000000000000000980311241FBECFEFD5
:1000C000D8E0DEBFCDBF11E0A0E0B1E0E4EAF7E0A8
:1000D00002C005900D92A231B107D9F721E0A2E14B
:1000E000B1E001C01D92A83BB207E1F710E0CDE5F9
:1000F000D0E004C02197FE010E94C503CC35D10792
:10010000C9F70E94C6020C94D0030C94000090E042
:10011000FC01EC55FF4F2491FC01E057FF4F349157
:10012000FC01E458FF4FE491EE23B9F1222339F1A9
:10013000233091F038F42130A9F0223001F584B554
:100140008F7D12C0273091F02830A1F02430B9F40F
:10015000809180008F7D03C0809180008F77809395
:1001600080000DC084B58F7784BD09C08091B00038
:100170008F7703C08091B0008F7D8093B000F0E056
:10018000EE0FFF1FEE58FF4FA591B4919FB7F89463
:100190008C91309538233C939FBF089590E0FC01EB
:1001A000E057FF4F2491FC01E458FF4F84918823CE
:1001B00099F090E0880F991FFC01E859FF4FA59135
:1001C000B491FC01EE58FF4F859194918FB7F8944C
:1001D000EC91E22BEC938FBF08953FB7F894809198
:1001E000B4019091B501A091B601B091B70126B5C7
:1001F000A89B05C02F3F19F00196A11DB11D3FBF5F
:10020000BA2FA92F982F8827820F911DA11DB11DEC
:10021000BC01CD0142E0660F771F881F991F4A95E8
:10022000D1F70895CF92DF92EF92FF920F931F9331
:10023000CF93DF936C017A018B01C0E0D0E0CE1543
:10024000DF0581F0D8016D918D01D601ED91FC9112
:100250000190F081E02DC6010995892B11F02196BE
:10026000EECF7E01C701DF91CF911F910F91FF90DB
:10027000EF90DF90CF900895089580E090E008958A
:10028000FC01538D448D252F30E0842F90E0821B9C
:10029000930B541710F0CF96089501970895FC0121
:1002A000918D828D981761F0828DDF01A80FB11DAD
:1002B0005D968C91928D9F5F9F73928F90E00895D1
:1002C0008FEF9FEF0895FC01918D828D981731F08B
:1002D000828DE80FF11D858D90E008958FEF9FEFDF
:1002E0000895FC01918D228D892F90E0805C9F4FB5
:1002F000821B91098F739927089582E191E00E94F2
:10030000710121E0892B09F420E0822F0895FC017E
:10031000848DDF01A80FB11DA35ABF4F2C91848D8E
:1003200090E001968F739927848FA689B7892C93C3
:10033000A089B1898C91837080648C93938D848D16
:10034000981306C00288F389E02D80818F7D808319
:100350000895EF92FF920F931F93CF93DF93EC01D9
:1003600081E0888F9B8D8C8D981305C0E889F98971
:10037000808185FD26C0F62E0B8D10E00F5F1F4F8C
:100380000F731127E02E8C8DE8120CC00FB607FCFE
:10039000FACFE889F989808185FFF5CFCE010E94E7
:1003A0008701F1CF8B8DFE01E80FF11DE35AFF4F5E
:1003B000F0829FB7F8940B8FEA89FB898081806275
:1003C0000AC09FB7F894EE89FF896083E889F989AC
:1003D00080818370806480839FBF81E090E0DF91A3
:1003E000CF911F910F91FF90EF900895CF93DF93DE
:1003F000EC01888D8823C9F0EA89FB89808185FD1D
:1004000005C0A889B9898C9186FD0FC00FB607FC7D
:10041000F5CF808185FFF2CFA889B9898C9185FFBE
:10042000EDCFCE010E948701E7CFDF91CF910895F4
:1004300080E090E0892B29F00E947D0181110C94CD
:10044000000008950E94CB031F920F920FB60F92E7
:1004500011242F933F938F939F93AF93BF938091DA
:10046000B0019091B101A091B201B091B30130916E
:10047000AF0123E0230F2D3720F40196A11DB11DFC
:1004800005C026E8230F0296A11DB11D2093AF01E0
:100490008093B0019093B101A093B201B093B301E6
:1004A0008091B4019091B501A091B601B091B701CE
:1004B0000196A11DB11D8093B4019093B501A09345
:1004C000B601B093B701BF91AF919F918F913F91CA
:1004D0002F910F900FBE0F901F9018951F920F92A3
:1004E0000FB60F9211242F933F934F935F936F9307
:1004F0007F938F939F93AF93BF93EF93FF9382E18B
:1005000091E00E948701FF91EF91BF91AF919F9180
:100510008F917F916F915F914F913F912F910F90AC
:100520000FBE0F901F9018951F920F920FB60F924B
:1005300011242F938F939F93EF93FF93E0912201C8
:10054000F09123018081E0912801F091290182FD41
:1005500012C0908180912B018F5F8F7320912C01AD
:10056000821751F0E0912B01F0E0EE5EFE4F958F87
:1005700080932B0101C08081FF91EF919F918F911A
:100580002F910F900FBE0F901F901895789484B5FF
:10059000826084BD84B5816084BD85B5826085BD7F
:1005A00085B5816085BD80916E00816080936E000D
:1005B00010928100809181008260809381008091FF
:1005C00081008160809381008091800081608093B0
:1005D00080008091B10084608093B1008091B00070
:1005E00081608093B00080917A00846080937A006B
:1005F00080917A00826080937A0080917A00816095
:1006000080937A0080917A00806880937A001092BB
:10061000C100E0912201F091230182E08083E0910A
:100620001E01F0911F011082E0912001F091210143
:100630008FEC808310922A01E0912601F09127012E
:1006400086E08083E0912401F09125018081806122
:100650008083E0912401F09125018081886080836E
:10066000E0912401F0912501808180688083E091F0
:100670002401F091250180818F7D808386E00E9496
:10068000CE0082E00E94CE0086E00E94870082E0D9
:100690000E94870087E00E94CE0083E00E94CE0087
:1006A00087E00E94870083E00E94870088E00E9424
:1006B000CE0084E00E94CE0088E00E94870084E0A3
:1006C0000E9487008CE00E94CE0085E00E94CE0050
:1006D0008CE00E94870085E00E9487000E94ED0068
:1006E0006B017C0188EE882E83E0982EA12CB12C22
:1006F0000E94ED00DC01CB018C199D09AE09BF09F8
:10070000883E9340A105B10598F321E0821A910833
:10071000A108B10888EEC80E83E0D81EE11CF11CC8
:1007200081149104A104B10419F70E941802D6CFD4
:10073000E2E1F1E01382128288EE93E0A0E0B0E003
:1007400084839583A683B78384E091E0918380833B
:1007500085EC90E09587848784EC90E09787868786
:1007600080EC90E0918B808B81EC90E0938B828B7E
:1007700082EC90E0958B848B86EC90E0978B868B57
:10078000118E128E138E148E0895EE0FFF1F05909A
:10079000F491E02D099481E090E0F8940C94D0035A
:0407A000F894FFCFFB
:1007A40000000000A90112014001F60171014F018E
:0207B4006301DF
:00000001FF
