:100000000C9462000C948A000C948A000C948A0070
:100010000C948A000C948A000C948A000C948A0038
:100020000C948A000C948A000C948A000C948A0028
:100030000C948A000C948A000C948A000C948A0018
:100040000C94B2030C948A000C9422040C94FC03CC
:100050000C948A000C948A000C948A000C948A00F8
:100060000C948A000C948A000000000023002600F3
:10007000290000000008000201000003040700003E
:1000800000000000000000000000250028002B00F8
:1000900000000000240027002A00040404040404D3
:1000A0000404020202020202030303030303010227
:1000B00004081020408001020408102001020408F6
:1000C0001020C70611241FBECFEFD8E0DEBFCDBF82
:1000D00011E0A0E0B1E0E6E4FEE002C005900D9280
:1000E000AC34B107D9F722E0ACE4B1E001C01D9215
:1000F000AA30B207E1F710E0C2E6D0E004C02197D1
:10010000FE010E941607C136D107C9F70E945404A8
:100110000C9421070C94000090E0FC01E255FF4F85
:100120002491FC01E656FF4F8491882399F090E0DA
:10013000880F991FFC01E057FF4FA591B491FC0176
:10014000EA57FF4F859194918FB7F894EC91E22B89
:10015000EC938FBF089580E480937C0080917A00B7
:10016000806480937A0080917A0086FDFCCF809134
:1001700078002091790090E0922B0895833081F0EF
:1001800028F4813099F08230A1F008958730A9F0E9
:100190008830B9F08430D1F4809180008F7D03C025
:1001A000809180008F7780938000089584B58F7749
:1001B00002C084B58F7D84BD08958091B0008F7793
:1001C00003C08091B0008F7D8093B0000895CF93DD
:1001D000DF93282F30E0F901EE58FF4F8491F901A9
:1001E000E255FF4FD491F901E656FF4FC491CC235D
:1001F00091F081110E94BE00EC2FF0E0EE0FFF1F86
:10020000E859FF4FA591B491EC91ED2381E090E086
:1002100021F480E002C080E090E0DF91CF9108956A
:100220001F93CF93DF93282F30E0F901EE58FF4F53
:100230008491F901E255FF4FD491F901E656FF4F41
:10024000C491CC23C1F0162F81110E94BE00EC2F67
:10025000F0E0EE0FFF1FEA57FF4FA591B4919FB753
:10026000F894111104C08C91D095D82302C0EC9160
:10027000DE2BDC939FBFDF91CF911F9108951F93D9
:10028000CF93DF93182FEB010E948C00209711F47D
:1002900060E004C0CF3FD10539F461E0812FDF91E8
:1002A000CF911F910C941001E12FF0E0EE58FF4F19
:1002B000E491E330F9F048F4E130B9F0E230A1F52F
:1002C00084B5806284BDC8BD34C0E730E9F0E83051
:1002D00019F1E43049F580918000806280938000BC
:1002E000D0938B00C0938A0024C084B5806884BDFD
:1002F000C7BD1FC080918000806880938000D0932C
:100300008900C093880015C08091B00080688093F8
:10031000B000C093B3000DC08091B00080628093A4
:10032000B000C093B40005C0C038D1050CF0B5CF03
:10033000AFCFDF91CF911F9108953FB7F89480918F
:10034000690190916A01A0916B01B0916C0126B591
:10035000A89B05C02F3F19F00196A11DB11D3FBFFD
:10036000BA2FA92F982F8827820F911DA11DB11D8B
:10037000BC01CD0142E0660F771F881F991F4A9587
:10038000D1F708958F929F92AF92BF92CF92DF9252
:10039000EF92FF926B017C010E949D014B015C0179
:1003A000C114D104E104F104F1F00E949D01DC01CB
:1003B000CB0188199909AA09BB09883E9340A10578
:1003C000B10570F321E0C21AD108E108F10888EE06
:1003D000880E83E0981EA11CB11CC114D104E10455
:1003E000F10419F7DDCFFF90EF90DF90CF90BF9031
:1003F000AF909F908F900895CF92DF92EF92FF92EF
:100400000F931F93CF93DF936C017A018B01C0E0B0
:10041000D0E0CE15DF0581F0D8016D918D01D601B8
:10042000ED91FC910190F081E02DC6010995892B99
:1004300011F02196EECF7E01C701DF91CF911F9180
:100440000F91FF90EF90DF90CF900895089580E096
:1004500090E00895FC01538D448D252F30E0842FCA
:1004600090E0821B930B541710F0CF9608950197DC
:100470000895FC01918D828D981761F0828DDF01C6
:10048000A80FB11D5D968C91928D9F5F9F73928F87
:1004900090E008958FEF9FEF0895FC01918D828D7C
:1004A000981731F0828DE80FF11D858D90E0089549
:1004B0008FEF9FEF0895FC01918D228D892F90E0A1
:1004C000805C9F4F821B91098F73992708958DE659
:1004D00091E00E945B0221E0892B09F420E0822F49
:1004E0000895FC01848DDF01A80FB11DA35ABF4FF1
:1004F0002C91848D90E001968F739927848FA68923
:10050000B7892C93A089B1898C91837080648C9376
:10051000938D848D981306C00288F389E02D808125
:100520008F7D80830895EF92FF920F931F93CF9357
:10053000DF93EC0181E0888F9B8D8C8D981305C033
:10054000E889F989808185FD26C0F62E0B8D10E0A3
:100550000F5F1F4F0F731127E02E8C8DE8120CC018
:100560000FB607FCFACFE889F989808185FFF5CFBE
:10057000CE010E947102F1CF8B8DFE01E80FF11DBB
:10058000E35AFF4FF0829FB7F8940B8FEA89FB89FB
:10059000808180620AC09FB7F894EE89FF896083EA
:1005A000E889F98980818370806480839FBF81E0BE
:1005B00090E0DF91CF911F910F91FF90EF90089500
:1005C000CF93DF93EC01888D8823C9F0EA89FB89FA
:1005D000808185FD05C0A889B9898C9186FD0FC0F1
:1005E0000FB607FCF5CF808185FFF2CFA889B989C6
:1005F0008C9185FFEDCFCE010E947102E7CFDF9194
:10060000CF91089580E090E0892B29F00E94670245
:1006100081110C94000008950F931F93CF93DF93E3
:100620008B01EA01BC018AE00E943F01B80189E028
:100630000E943F01BE018BE0DF91CF911F910F918E
:100640000C943F01009769F0FC0101900020E9F74C
:100650003197AF01481B590BBC018DE691E00C941A
:10066000FC0180E090E008958F929F92AF92BF923C
:10067000CF92DF92EF92FF920F931F93CF93DF936E
:10068000CDB7DEB7A1970FB6F894DEBF0FBECDBFD2
:100690006C01990FEE08FF08F7FE2BC06DE28DE6A6
:1006A00091E00E9493028C0122273327A9012C1983
:1006B0003D094E095F0919A2CE0181967C019AE09D
:1006C000892E912CA12CB12CCA01B901A50194014C
:1006D0000E94F406605DF70162937F0121153105E8
:1006E0004105510589F7CF010E942203080F191F08
:1006F0001EC0A701960119A28E010F5D1F4F8AE04F
:10070000C82ED12CE12CF12CCA01B901A701960108
:100710000E94F406605DF80162938F012115310596
:100720004105510589F7CF010E9422038C0182E126
:1007300091E00E942203800F911FA1960FB6F894BA
:10074000DEBF0FBECDBFDF91CF911F910F91FF9004
:10075000EF90DF90CF90BF90AF909F908F900895D3
:100760000E941C071F920F920FB60F9211242F9315
:100770003F938F939F93AF93BF9380916501909127
:100780006601A0916701B09168013091640123E096
:10079000230F2D3720F40196A11DB11D05C026E8B9
:1007A000230F0296A11DB11D209364018093650162
:1007B00090936601A0936701B093680180916901ED
:1007C00090916A01A0916B01B0916C010196A11DFD
:1007D000B11D8093690190936A01A0936B01B0935E
:1007E0006C01BF91AF919F918F913F912F910F908D
:1007F0000FBE0F901F9018951F920F920FB60F9279
:1008000011242F933F934F935F936F937F938F9315
:100810009F93AF93BF93EF93FF938DE691E00E9478
:100820007102FF91EF91BF91AF919F918F917F9155
:100830006F915F914F913F912F910F900FBE0F904D
:100840001F9018951F920F920FB60F9211242F939D
:100850008F939F93EF93FF93E0917D01F0917E0141
:100860008081E0918301F091840182FD12C090812A
:10087000809186018F5F8F7320918701821751F0DD
:10088000E0918601F0E0E359FE4F958F8093860159
:1008900001C08081FF91EF919F918F912F910F90D7
:1008A0000FBE0F901F901895789484B5826084BD18
:1008B00084B5816084BD85B5826085BD85B5816064
:1008C00085BD80916E00816080936E0010928100E2
:1008D000809181008260809381008091810081609D
:1008E000809381008091800081608093800080915E
:1008F000B10084608093B1008091B00081608093EA
:10090000B00080917A00846080937A0080917A00B0
:10091000826080937A0080917A00816080937A006F
:1009200080917A00806880937A001092C100E091F3
:100930007D01F0917E0182E08083E0917901F09168
:100940007A011082E0917B01F0917C018FEC808331
:1009500010928501E0918101F091820186E080830F
:10096000E0917F01F0918001808180618083E0913E
:100970007F01F0918001808188608083E0917F0118
:10098000F0918001808180688083E0917F01F09107
:10099000800180818F7D808386E00E948C0082E0D0
:1009A0000E948C0060E086E00E94100160E082E01E
:1009B0000E94100187E00E948C0083E00E948C005E
:1009C00060E087E00E94100160E083E00E94100177
:1009D00088E00E948C0084E00E948C0060E088E047
:1009E0000E94100160E084E00E9410018CE00E94EF
:1009F0008C0085E00E948C0060E08CE00E94100179
:100A000060E085E00E941001C1E0D0E068EE73E094
:100A100080E090E00E94C20144E650E064E670E0AD
:100A200084E690E00E940C0361E086E00E941001E1
:100A300061E087E00E94100161E088E00E941001FF
:100A400061E08CE00E9410016AE070E080E090E0DC
:100A50000E94C2010E94AB005C0190935B018093F5
:100A60005A010E94AB006C01909359018093580188
:100A70000E94AB007C0190935701809356010E9425
:100A8000AB008C01909355018093540160E086E0A7
:100A90000E94100160E087E00E94100160E088E0A1
:100AA0000E94100160E08CE00E94100168E873E190
:100AB00080E090E00E94C20140E050E060E070E021
:100AC00080E090E00E940C0388EEA81683E0B80650
:100AD0004CF061E082E00E941001D0936301C0936A
:100AE00062010DC088E5A81682E0B80644F460E013
:100AF00082E00E941001109263011092620188EE60
:100B0000C81683E0D8064CF061E083E00E94100133
:100B1000D0936101C09360010DC088E5C81682E0E2
:100B2000D80644F460E083E00E9410011092610155
:100B30001092600188EEE81683E0F8064CF061E060
:100B400084E00E941001D0935F01C0935E010DC04C
:100B500088E5E81682E0F80644F460E084E00E944C
:100B6000100110925F0110925E01083E83E01807A9
:100B70004CF061E085E00E941001D0935D01C093CC
:100B80005C010BC00835124044F460E085E00E942F
:100B9000100110925D0110925C0120916201309170
:100BA00063018091600190916101820F931F2091F8
:100BB0005E0130915F01820F931F20915C013091A3
:100BC0005D01820F931F1816190614F461E001C02D
:100BD00060E08DE00E941001D0936301C093620138
:100BE0004FEF50E060E070E080E090E00E940C0386
:100BF00064EF71E080E090E00E94C20140E050E0CC
:100C000060E070E080E090E00E940C03D09361010E
:100C1000C09360014FEF50E060E070E080E090E052
:100C20000E940C0364EF71E080E090E00E94C2013A
:100C300040E050E060E070E080E090E00E940C0353
:100C4000D0935F01C0935E014FEF50E060E070E031
:100C500080E090E00E940C0364EF71E080E090E09F
:100C60000E94C20140E050E060E070E080E090E06F
:100C70000E940C03D0935D01C0935C014FEF50E0E4
:100C800060E070E080E090E00E940C0364EF71E0AF
:100C900080E090E00E94C20140E050E060E070E03F
:100CA00080E090E00E940C0340E050E060E070E0E3
:100CB00080E090E00E940C0382E00E94E70083E065
:100CC0000E94E70084E00E94E70085E00E94E700C0
:100CD00085E191E00E94220386E291E00E942203D6
:100CE00080915A0190915B010E9434038FE291E060
:100CF0000E94220380915801909159010E9434036F
:100D000087E391E00E942203809156019091570160
:100D10000E94340382E491E00E94220380915401F6
:100D2000909155010E94340382E00E94E7008C01FB
:100D3000909353018093520183E00E94E7009093C7
:100D400051018093500184E00E94E70090934F018D
:100D500080934E0185E00E94E70090934D018093BF
:100D60004C01C8010E9434038091500190915101BF
:100D70000E94340380914E0190914F010E943403F0
:100D800080914C0190914D010E9434033FCEEDE6DD
:100D9000F1E01382128288EE93E0A0E0B0E0848359
:100DA0009583A683B78384E091E09183808385EC6B
:100DB00090E09587848784EC90E09787868780EC25
:100DC00090E0918B808B81EC90E0938B828B82EC16
:100DD00090E0958B848B86EC90E0978B868B118EC0
:100DE000128E138E148E0895A1E21A2EAA1BBB1B1D
:100DF000FD010DC0AA1FBB1FEE1FFF1FA217B307E7
:100E0000E407F50720F0A21BB30BE40BF50B661FFC
:100E1000771F881F991F1A9469F7609570958095C0
:100E200090959B01AC01BD01CF010895EE0FFF1F0E
:100E30000590F491E02D099481E090E0F8940C94F1
:060E40002107F894FFCF2A
:100E4600000000009302FC012A02E0025B02390264
:100E56004D020D0A00536F696C204D6F69737475EE
:100E66007265203D200076616C426C7565200076C7
:100E7600616C526564200076616C507572706C65A9
:0C0E8600200076616C477265656E2000EC
:00000001FF
